{"abi":[{"type":"constructor","inputs":[{"name":"initialProjectLead","type":"address","internalType":"address"},{"name":"initialAgent","type":"address","internalType":"address"}],"stateMutability":"nonpayable"},{"type":"function","name":"agent","inputs":[],"outputs":[{"name":"","type":"address","internalType":"address"}],"stateMutability":"view"},{"type":"function","name":"deployContract","inputs":[{"name":"projectId","type":"bytes32","internalType":"bytes32"},{"name":"name","type":"string","internalType":"string"},{"name":"symbol","type":"string","internalType":"string"},{"name":"totalSupplyTokens","type":"uint256","internalType":"uint256"},{"name":"basePriceUsd","type":"uint256","internalType":"uint256"},{"name":"slopeUsd","type":"uint256","internalType":"uint256"},{"name":"targetMarketCapUsd","type":"uint256","internalType":"uint256"},{"name":"priceFeed","type":"address","internalType":"address"},{"name":"uniswapRouter","type":"address","internalType":"address"}],"outputs":[{"name":"","type":"address","internalType":"address"}],"stateMutability":"nonpayable"},{"type":"function","name":"deployedContracts","inputs":[{"name":"","type":"bytes32","internalType":"bytes32"}],"outputs":[{"name":"","type":"address","internalType":"address"}],"stateMutability":"view"},{"type":"function","name":"getAgent","inputs":[],"outputs":[{"name":"","type":"address","internalType":"address"}],"stateMutability":"view"},{"type":"function","name":"owner","inputs":[],"outputs":[{"name":"","type":"address","internalType":"address"}],"stateMutability":"view"},{"type":"function","name":"projectLead","inputs":[],"outputs":[{"name":"","type":"address","internalType":"address"}],"stateMutability":"view"},{"type":"function","name":"renounceOwnership","inputs":[],"outputs":[],"stateMutability":"nonpayable"},{"type":"function","name":"transferOwnership","inputs":[{"name":"newOwner","type":"address","internalType":"address"}],"outputs":[],"stateMutability":"nonpayable"},{"type":"function","name":"updateAgent","inputs":[{"name":"newAgent","type":"address","internalType":"address"}],"outputs":[],"stateMutability":"nonpayable"},{"type":"function","name":"updateProjectLead","inputs":[{"name":"newProjectLead","type":"address","internalType":"address"}],"outputs":[],"stateMutability":"nonpayable"},{"type":"event","name":"AgentUpdated","inputs":[{"name":"oldAgent","type":"address","indexed":true,"internalType":"address"},{"name":"newAgent","type":"address","indexed":true,"internalType":"address"}],"anonymous":false},{"type":"event","name":"ContractDeployed","inputs":[{"name":"projectId","type":"bytes32","indexed":true,"internalType":"bytes32"},{"name":"contractAddress","type":"address","indexed":false,"internalType":"address"}],"anonymous":false},{"type":"event","name":"OwnershipTransferred","inputs":[{"name":"previousOwner","type":"address","indexed":true,"internalType":"address"},{"name":"newOwner","type":"address","indexed":true,"internalType":"address"}],"anonymous":false},{"type":"event","name":"ProjectLeadUpdated","inputs":[{"name":"oldLead","type":"address","indexed":true,"internalType":"address"},{"name":"newLead","type":"address","indexed":true,"internalType":"address"}],"anonymous":false},{"type":"error","name":"OwnableInvalidOwner","inputs":[{"name":"owner","type":"address","internalType":"address"}]},{"type":"error","name":"OwnableUnauthorizedAccount","inputs":[{"name":"account","type":"address","internalType":"address"}]}],"bytecode":{"object":"0x608060405234801561000f575f5ffd5b506040516134ca3803806134ca83398101604081905261002e916100f8565b338061005357604051631e4fbdf760e01b81525f600482015260240160405180910390fd5b61005c8161008e565b50600180546001600160a01b039384166001600160a01b03199182161790915560028054929093169116179055610129565b5f80546001600160a01b038381166001600160a01b0319831681178455604051919092169283917f8be0079c531659141344cd1fd0a4f28419497f9722a3daafe3b4186f6b6457e09190a35050565b80516001600160a01b03811681146100f3575f5ffd5b919050565b5f5f60408385031215610109575f5ffd5b610112836100dd565b9150610120602084016100dd565b90509250929050565b613394806101365f395ff3fe608060405234801561000f575f5ffd5b506004361061009b575f3560e01c80638da5cb5b116100635780638da5cb5b14610126578063f11fd9da14610136578063f2fde38b14610149578063f551eb191461015c578063f5ff5c761461016d575f5ffd5b806323b94b541461009f57806326955430146100e357806349f41a42146100f8578063715018a61461010b578063724a39dc14610113575b5f5ffd5b6100c76100ad366004610566565b60036020525f90815260409020546001600160a01b031681565b6040516001600160a01b03909116815260200160405180910390f35b6100f66100f1366004610598565b610180565b005b6100f6610106366004610598565b610226565b6100f66102c7565b6100c7610121366004610657565b6102da565b5f546001600160a01b03166100c7565b6001546100c7906001600160a01b031681565b6100f6610157366004610598565b6104a1565b6002546001600160a01b03166100c7565b6002546100c7906001600160a01b031681565b6101886104de565b6001600160a01b0381166101d55760405162461bcd60e51b815260206004820152600f60248201526e496e76616c6964206164647265737360881b60448201526064015b60405180910390fd5b600180546001600160a01b038381166001600160a01b0319831681179093556040519116919082907fe6c8d0172a8b250d9ab3134b721c28058c5289615daa61658015a34e3060fc1b905f90a35050565b61022e6104de565b6001600160a01b0381166102765760405162461bcd60e51b815260206004820152600f60248201526e496e76616c6964206164647265737360881b60448201526064016101cc565b600280546001600160a01b038381166001600160a01b0319831681179093556040519116919082907fee7760cb405d3beb1072ae2e716857daa45a5dd52bc1383a21173199d32c7dee905f90a35050565b6102cf6104de565b6102d85f61050a565b565b6001545f906001600160a01b031633146103365760405162461bcd60e51b815260206004820152601a60248201527f43616c6c6572206973206e6f742070726f6a656374206c65616400000000000060448201526064016101cc565b5f8a8152600360205260409020546001600160a01b03161561039a5760405162461bcd60e51b815260206004820152601960248201527f50726f6a65637420494420616c7265616479206578697374730000000000000060448201526064016101cc565b5f898989898930898b6040516103af90610559565b6103c0989796959493929190610738565b604051809103905ff0801580156103d9573d5f5f3e3d5ffd5b50604051635f54c24f60e11b81526001600160a01b0385811660048301529192509082169063bea9849e906024015f604051808303815f87803b15801561041e575f5ffd5b505af1158015610430573d5f5f3e3d5ffd5b5050505f8c81526003602090815260409182902080546001600160a01b0319166001600160a01b03861690811790915591519182528d92507f12ccd8746b21e48b266b2ebaa7453f5e499cb6bd6e810a13e0a22187f97f78e9910160405180910390a29a9950505050505050505050565b6104a96104de565b6001600160a01b0381166104d257604051631e4fbdf760e01b81525f60048201526024016101cc565b6104db8161050a565b50565b5f546001600160a01b031633146102d85760405163118cdaa760e01b81523360048201526024016101cc565b5f80546001600160a01b038381166001600160a01b0319831681178455604051919092169283917f8be0079c531659141344cd1fd0a4f28419497f9722a3daafe3b4186f6b6457e09190a35050565b612bc48061079b83390190565b5f60208284031215610576575f5ffd5b5035919050565b80356001600160a01b0381168114610593575f5ffd5b919050565b5f602082840312156105a8575f5ffd5b6105b18261057d565b9392505050565b634e487b7160e01b5f52604160045260245ffd5b5f82601f8301126105db575f5ffd5b813567ffffffffffffffff8111156105f5576105f56105b8565b604051601f8201601f19908116603f0116810167ffffffffffffffff81118282101715610624576106246105b8565b60405281815283820160200185101561063b575f5ffd5b816020850160208301375f918101602001919091529392505050565b5f5f5f5f5f5f5f5f5f6101208a8c031215610670575f5ffd5b8935985060208a013567ffffffffffffffff81111561068d575f5ffd5b6106998c828d016105cc565b98505060408a013567ffffffffffffffff8111156106b5575f5ffd5b6106c18c828d016105cc565b97505060608a0135955060808a0135945060a08a0135935060c08a013592506106ec60e08b0161057d565b91506106fb6101008b0161057d565b90509295985092959850929598565b5f81518084528060208401602086015e5f602082860101526020601f19601f83011685010191505092915050565b61010081525f61074c61010083018b61070a565b828103602084015261075e818b61070a565b60408401999099525050606081019590955260808501939093526001600160a01b0391821660a08501521660c083015260e0909101529291505056fe60c060405234801561000f575f5ffd5b50604051612bc4380380612bc483398101604081905261002e9161053b565b338888600361003d838261066d565b50600461004a828261066d565b5050506001600160a01b03811661007b57604051631e4fbdf760e01b81525f60048201526024015b60405180910390fd5b610084816101f6565b5060016006556001600160a01b0383166100e05760405162461bcd60e51b815260206004820152601e60248201527f466163746f727920616464726573732063616e6e6f74206265207a65726f00006044820152606401610072565b6001600160a01b0380841660a05282166101465760405162461bcd60e51b815260206004820152602160248201527f5072696365206665656420616464726573732063616e6e6f74206265207a65726044820152606f60f81b6064820152608401610072565b5f81116101955760405162461bcd60e51b815260206004820152601d60248201527f546172676574206d61726b657420636170206d757374206265203e20300000006044820152606401610072565b600885905560098490556080869052600a8190556101c93060126101ba90600a610820565b6101c49089610835565b610247565b50600c80546001600160a01b0319166001600160a01b03929092169190911790555061085f945050505050565b600580546001600160a01b038381166001600160a01b0319831681179093556040519116919082907f8be0079c531659141344cd1fd0a4f28419497f9722a3daafe3b4186f6b6457e0905f90a35050565b6001600160a01b0382166102705760405163ec442f0560e01b81525f6004820152602401610072565b61027b5f838361027f565b5050565b600c54600160a01b900460ff161580156102a257506001600160a01b0383163014155b80156102b757506001600160a01b0382163014155b1561034d576001600160a01b0383163014806102db57506001600160a01b03821630145b61034d5760405162461bcd60e51b815260206004820152603660248201527f546f6b656e207472616e736665727320617265206c6f636b656420756e74696c60448201527f206c6971756964697479206973206465706c6f796564000000000000000000006064820152608401610072565b61035883838361035d565b505050565b6001600160a01b038316610387578060025f82825461037c919061084c565b909155506103f79050565b6001600160a01b0383165f90815260208190526040902054818110156103d95760405163391434e360e21b81526001600160a01b03851660048201526024810182905260448101839052606401610072565b6001600160a01b0384165f9081526020819052604090209082900390555b6001600160a01b03821661041357600280548290039055610431565b6001600160a01b0382165f9081526020819052604090208054820190555b816001600160a01b0316836001600160a01b03167fddf252ad1be2c89b69c2b068fc378daa952ba7f163c4a11628f55a4df523b3ef8360405161047691815260200190565b60405180910390a3505050565b634e487b7160e01b5f52604160045260245ffd5b5f82601f8301126104a6575f5ffd5b81516001600160401b038111156104bf576104bf610483565b604051601f8201601f19908116603f011681016001600160401b03811182821017156104ed576104ed610483565b604052818152838201602001851015610504575f5ffd5b8160208501602083015e5f918101602001919091529392505050565b80516001600160a01b0381168114610536575f5ffd5b919050565b5f5f5f5f5f5f5f5f610100898b031215610553575f5ffd5b88516001600160401b03811115610568575f5ffd5b6105748b828c01610497565b60208b015190995090506001600160401b03811115610591575f5ffd5b61059d8b828c01610497565b60408b015160608c015160808d0151929a50909850965094506105c4905060a08a01610520565b92506105d260c08a01610520565b60e09990990151979a96995094979396929591945050565b600181811c908216806105fe57607f821691505b60208210810361061c57634e487b7160e01b5f52602260045260245ffd5b50919050565b601f82111561035857805f5260205f20601f840160051c810160208510156106475750805b601f840160051c820191505b81811015610666575f8155600101610653565b5050505050565b81516001600160401b0381111561068657610686610483565b61069a8161069484546105ea565b84610622565b6020601f8211600181146106cc575f83156106b55750848201515b5f19600385901b1c1916600184901b178455610666565b5f84815260208120601f198516915b828110156106fb57878501518255602094850194600190920191016106db565b508482101561071857868401515f19600387901b60f8161c191681555b50505050600190811b01905550565b634e487b7160e01b5f52601160045260245ffd5b6001815b60018411156107765780850481111561075a5761075a610727565b600184161561076857908102905b60019390931c92800261073f565b935093915050565b5f8261078c5750600161081a565b8161079857505f61081a565b81600181146107ae57600281146107b8576107d4565b600191505061081a565b60ff8411156107c9576107c9610727565b50506001821b61081a565b5060208310610133831016604e8410600b84101617156107f7575081810a61081a565b6108035f19848461073b565b805f190482111561081657610816610727565b0290505b92915050565b5f61082e60ff84168361077e565b9392505050565b808202811582820484141761081a5761081a610727565b8082018082111561081a5761081a610727565b60805160a05161233d6108875f395f81816104ef0152610f8c01525f610285015261233d5ff3fe6080604052600436106101d3575f3560e01c8063741bef1a116100fd578063bfc78b2d11610092578063eb91d37e11610062578063eb91d37e14610574578063edbd18d514610588578063ee38db951461059d578063f2fde38b146105b1575f5ffd5b8063bfc78b2d146104cb578063c45a0155146104de578063dd62ed3e14610511578063e4849b3214610555575f5ffd5b80639c5913cc116100cd5780639c5913cc14610444578063a9059cbb14610464578063b648954214610483578063bea9849e146104ac575f5ffd5b8063741bef1a146103c95780637ecebe00146103e85780638da5cb5b1461041357806395d89b4114610430575f5ffd5b8063313ce5671161017357806370a082311161014357806370a0823114610335578063715018a61461036957806372fdb60b1461037d578063735de9f714610392575f5ffd5b8063313ce567146102da5780634086bf89146102f5578063518ab2a81461030b5780636f138f2214610320575f5ffd5b806323b872dd116101ae57806323b872dd146102555780632e187a68146102745780632e834576146102a757806330c0b9ec146102c6575f5ffd5b806306fdde03146101de578063095ea7b31461020857806318160ddd14610237575f5ffd5b366101da57005b5f5ffd5b3480156101e9575f5ffd5b506101f26105d0565b6040516101ff9190611f06565b60405180910390f35b348015610213575f5ffd5b50610227610222366004611f4f565b610660565b60405190151581526020016101ff565b348015610242575f5ffd5b506002545b6040519081526020016101ff565b348015610260575f5ffd5b5061022761026f366004611f79565b610679565b34801561027f575f5ffd5b506102477f000000000000000000000000000000000000000000000000000000000000000081565b3480156102b2575f5ffd5b506102476102c1366004611fb7565b61069c565b3480156102d1575f5ffd5b506102476107a3565b3480156102e5575f5ffd5b50604051601281526020016101ff565b348015610300575f5ffd5b50610309610870565b005b348015610316575f5ffd5b50610247600b5481565b34801561032b575f5ffd5b50610247600a5481565b348015610340575f5ffd5b5061024761034f366004611fce565b6001600160a01b03165f9081526020819052604090205490565b348015610374575f5ffd5b50610309610d46565b348015610388575f5ffd5b5061024760095481565b34801561039d575f5ffd5b50600d546103b1906001600160a01b031681565b6040516001600160a01b0390911681526020016101ff565b3480156103d4575f5ffd5b50600c546103b1906001600160a01b031681565b3480156103f3575f5ffd5b50610247610402366004611fce565b60076020525f908152604090205481565b34801561041e575f5ffd5b506005546001600160a01b03166103b1565b34801561043b575f5ffd5b506101f2610d57565b34801561044f575f5ffd5b50600c5461022790600160a01b900460ff1681565b34801561046f575f5ffd5b5061022761047e366004611f4f565b610d66565b34801561048e575f5ffd5b50610497610d73565b604080519283526020830191909152016101ff565b3480156104b7575f5ffd5b506103096104c6366004611fce565b610ddb565b6103096104d9366004611ff0565b610e5b565b3480156104e9575f5ffd5b506103b17f000000000000000000000000000000000000000000000000000000000000000081565b34801561051c575f5ffd5b5061024761052b366004612077565b6001600160a01b039182165f90815260016020908152604080832093909416825291909152205490565b348015610560575f5ffd5b5061030961056f366004611fb7565b611360565b34801561057f575f5ffd5b50610247611677565b348015610593575f5ffd5b5061024760085481565b3480156105a8575f5ffd5b5061030961169a565b3480156105bc575f5ffd5b506103096105cb366004611fce565b6117e1565b6060600380546105df906120ae565b80601f016020809104026020016040519081016040528092919081815260200182805461060b906120ae565b80156106565780601f1061062d57610100808354040283529160200191610656565b820191905f5260205f20905b81548152906001019060200180831161063957829003601f168201915b5050505050905090565b5f3361066d81858561181b565b60019150505b92915050565b5f3361068685828561182d565b6106918585856118a9565b506001949350505050565b5f5f6106a783611906565b90505f600b546009546106ba91906120f4565b6008546106c7919061210b565b9050808210156106da57505f9392505050565b6009545f036106f8576008546106f0908361211e565b949350505050565b600954600b545f90829061070d8260026120f4565b61071791906120f4565b6008546107259060026120f4565b61072f919061210b565b610739919061213d565b90505f84600954600861074c91906120f4565b61075691906120f4565b61076083806120f4565b61076a919061210b565b90505f6107768261192c565b90506107838460026120f4565b61078d848361213d565b610797919061211e565b98975050505050505050565b5f5f5f600c5f9054906101000a90046001600160a01b03166001600160a01b031663feaf968c6040518163ffffffff1660e01b815260040160a060405180830381865afa1580156107f6573d5f5f3e3d5ffd5b505050506040513d601f19601f8201168201806040525081019061081a919061216e565b509350509250505f821361086a5760405162461bcd60e51b8152602060048201526012602482015271496e76616c6964207072696365206461746160701b60448201526064015b60405180910390fd5b50919050565b610878611988565b600c54600160a01b900460ff16156108d25760405162461bcd60e51b815260206004820152601a60248201527f4c697175696469747920616c7265616479206465706c6f7965640000000000006044820152606401610861565b5f600b546009546108e391906120f4565b6008546108f0919061210b565b90505f81600b5461090191906120f4565b9050600a548110156109555760405162461bcd60e51b815260206004820152601d60248201527f546172676574206d61726b657420636170206e6f7420726561636865640000006044820152606401610861565b600d546001600160a01b03166109a65760405162461bcd60e51b8152602060048201526016602482015275155b9a5cddd85c081c9bdd5d195c881b9bdd081cd95d60521b6044820152606401610861565b305f9081526020819052604090205480610a0c5760405162461bcd60e51b815260206004820152602160248201527f4e6f20746f6b656e7320617661696c61626c6520666f72206c697175696469746044820152607960f81b6064820152608401610861565b4780610a5a5760405162461bcd60e51b815260206004820152601e60248201527f4e6f2045544820617661696c61626c6520666f72206c697175696469747900006044820152606401610861565b5f670de0b6b3a7640000610a6c6107a3565b610a7690846120f4565b610a80919061211e565b90505f610a8d868361211e565b90505f610a9c6012600a61229f565b610aa6908661211e565b90505f5f838310158015610ab957505f84115b15610ac8575082905084610b00565b8291505f610ad68a846120f4565b9050610ae06107a3565b610af282670de0b6b3a76400006120f4565b610afc919061211e565b9150505b5f8211610b4f5760405162461bcd60e51b815260206004820152601f60248201527f43616c63756c6174656420746f6b656e20616d6f756e74206973207a65726f006044820152606401610861565b5f8111610b9e5760405162461bcd60e51b815260206004820152601d60248201527f43616c63756c617465642045544820616d6f756e74206973207a65726f0000006044820152606401610861565b5f610bab6012600a61229f565b610bb590846120f4565b600d54909150610bd09030906001600160a01b03168361181b565b5f610bdd4261038461210b565b90505f6064610bed84605f6120f4565b610bf7919061211e565b90505f6064610c0786605f6120f4565b610c11919061211e565b600d549091505f90819081906001600160a01b031663f305d71989308a8989610c426005546001600160a01b031690565b60405160e088901b6001600160e01b03191681526001600160a01b039586166004820152602481019490945260448401929092526064830152909116608482015260a481018a905260c40160606040518083038185885af1158015610ca9573d5f5f3e3d5ffd5b50505050506040513d601f19601f82011682018060405250810190610cce91906122ad565b600c805460ff60a01b1916600160a01b179055604080518481526020810184905290810182905292955090935091507f27ef04f3eee6365ec57cc96b0ca6c817697868d1f05670199c789ca05b2697929060600160405180910390a150505050505050505050505050505050610d446001600655565b565b610d4e6119b2565b610d445f6119df565b6060600480546105df906120ae565b5f3361066d8185856118a9565b5f5f5f600b54600954610d8691906120f4565b600854610d93919061210b565b90505f81600b54610da491906120f4565b9050600a548110610dba57505f93849350915050565b80600a54610dc8919061213d565b9350610dd384611a30565b925050509091565b610de36119b2565b6001600160a01b038116610e395760405162461bcd60e51b815260206004820152601d60248201527f526f7574657220616464726573732063616e6e6f74206265207a65726f0000006044820152606401610861565b600d80546001600160a01b0319166001600160a01b0392909216919091179055565b610e63611988565b5f8511610eb25760405162461bcd60e51b815260206004820152601b60248201527f4d75737420627579206174206c65617374206f6e6520746f6b656e00000000006044820152606401610861565b83851115610f025760405162461bcd60e51b815260206004820152601f60248201527f43616e6e6f7420627579206d6f7265207468616e20616c6c6f636174696f6e006044820152606401610861565b335f908152600760205260409020548311610f4f5760405162461bcd60e51b815260206004820152600d60248201526c496e76616c6964206e6f6e636560981b6044820152606401610861565b60408051336020820152908101849052306060820152608081018590525f9060a0016040516020818303038152906040528051906020012090505f7f00000000000000000000000000000000000000000000000000000000000000006001600160a01b031663f551eb196040518163ffffffff1660e01b8152600401602060405180830381865afa158015610fe6573d5f5f3e3d5ffd5b505050506040513d601f19601f8201168201806040525081019061100a91906122d8565b7f19457468657265756d205369676e6564204d6573736167653a0a3332000000005f908152601c849052603c81209192509061107b9086868080601f0160208091040260200160405190810160405280939291908181526020018383808284375f92019190915250611a4b92505050565b9050816001600160a01b0316816001600160a01b0316146110de5760405162461bcd60e51b815260206004820152601760248201527f496e76616c6964206167656e74207369676e61747572650000000000000000006044820152606401610861565b335f90815260076020526040812087905560026110fc60018b61213d565b611106908b6120f4565b611110919061211e565b600b5461111d908b6120f4565b611127919061210b565b60095461113491906120f4565b600854611141908b6120f4565b61114b919061210b565b90505f61115734611906565b9050818110156111b55760405162461bcd60e51b815260206004820152602360248201527f496e73756666696369656e742045544820666f7220746f6b656e20707572636860448201526261736560e81b6064820152608401610861565b5f828211156111d8575f6111c9848461213d565b90506111d481611a30565b9150505b8a600b5f8282546111e9919061210b565b909155505f90506111fc6012600a61229f565b611206908d6120f4565b305f908152602081905260409020549091508111156112675760405162461bcd60e51b815260206004820152601b60248201527f4e6f7420656e6f75676820746f6b656e7320617661696c61626c6500000000006044820152606401610861565b6112723033836118a9565b81156112ff576040515f90339084908381818185875af1925050503d805f81146112b7576040519150601f19603f3d011682016040523d82523d5f602084013e6112bc565b606091505b50509050806112fd5760405162461bcd60e51b815260206004820152600d60248201526c1499599d5b990819985a5b1959609a1b6044820152606401610861565b505b604080518d815260208101869052348183015260608101849052905133917fca1d1d2c3f24bb3f0c4ad90bd9823d2465052996d73438c962e227ea67a206d8919081900360800190a2505050505050506113596001600655565b5050505050565b611368611988565b5f81116113b75760405162461bcd60e51b815260206004820152601c60248201527f4d7573742073656c6c206174206c65617374206f6e6520746f6b656e000000006044820152606401610861565b5f6113c46012600a61229f565b6113ce90836120f4565b335f9081526020819052604090205490915081111561142f5760405162461bcd60e51b815260206004820152601a60248201527f496e73756666696369656e7420746f6b656e2062616c616e63650000000000006044820152606401610861565b81600b5410156114815760405162461bcd60e51b815260206004820152601f60248201527f4e6f7420656e6f75676820736f6c6420746f6b656e73207265636f72646564006044820152606401610861565b5f600261148f60018561213d565b61149990856120f4565b6114a3919061211e565b83600b546114b1919061213d565b6114bb90856120f4565b6114c5919061210b565b6009546114d291906120f4565b6008546114df90856120f4565b6114e9919061210b565b90505f6114f46107a3565b90505f8161150a84670de0b6b3a76400006120f4565b611514919061211e565b9050804710156115775760405162461bcd60e51b815260206004820152602860248201527f436f6e74726163742068617320696e73756666696369656e742045544820666f6044820152671c881c99599d5b9960c21b6064820152608401610861565b84600b5f828254611588919061213d565b9091555061159990503330866118a9565b6040515f90339083908381818185875af1925050503d805f81146115d8576040519150601f19603f3d011682016040523d82523d5f602084013e6115dd565b606091505b50509050806116225760405162461bcd60e51b8152602060048201526011602482015270115512081c99599d5b990819985a5b1959607a1b6044820152606401610861565b604080518781526020810186905290810183905233907f6db63bebf1e6540277744df32846ebdb98385b1a73f2d5de49b28348add63f509060600160405180910390a250505050506116746001600655565b50565b5f600b5460095461168891906120f4565b600854611695919061210b565b905090565b6116a26119b2565b600c54600160a01b900460ff166116fb5760405162461bcd60e51b815260206004820152601a60248201527f4c6971756964697479206e6f74206465706c6f796564207965740000000000006044820152606401610861565b4780156117ac575f6117156005546001600160a01b031690565b6001600160a01b0316826040515f6040518083038185875af1925050503d805f811461175c576040519150601f19603f3d011682016040523d82523d5f602084013e611761565b606091505b50509050806117aa5760405162461bcd60e51b8152602060048201526015602482015274115512081dda5d1a191c985dd85b0819985a5b1959605a1b6044820152606401610861565b505b305f9081526020819052604090205480156117dd576117dd306117d76005546001600160a01b031690565b836118a9565b5050565b6117e96119b2565b6001600160a01b03811661181257604051631e4fbdf760e01b81525f6004820152602401610861565b611674816119df565b6118288383836001611a73565b505050565b6001600160a01b038381165f908152600160209081526040808320938616835292905220545f198110156118a3578181101561189557604051637dc7a0d960e11b81526001600160a01b03841660048201526024810182905260448101839052606401610861565b6118a384848484035f611a73565b50505050565b6001600160a01b0383166118d257604051634b637e8f60e11b81525f6004820152602401610861565b6001600160a01b0382166118fb5760405163ec442f0560e01b81525f6004820152602401610861565b611828838383611b45565b5f670de0b6b3a76400006119186107a3565b61192290846120f4565b610673919061211e565b5f815f0361193b57505f919050565b81600261194982600161210b565b611953919061211e565b91505b8082101561067357508060028161196d818661211e565b611977919061210b565b611981919061211e565b9150611956565b6002600654036119ab57604051633ee5aeb560e01b815260040160405180910390fd5b6002600655565b6005546001600160a01b03163314610d445760405163118cdaa760e01b8152336004820152602401610861565b600580546001600160a01b038381166001600160a01b0319831681179093556040519116919082907f8be0079c531659141344cd1fd0a4f28419497f9722a3daafe3b4186f6b6457e0905f90a35050565b5f611a396107a3565b61192283670de0b6b3a76400006120f4565b5f5f5f5f611a598686611c17565b925092509250611a698282611c60565b5090949350505050565b6001600160a01b038416611a9c5760405163e602df0560e01b81525f6004820152602401610861565b6001600160a01b038316611ac557604051634a1406b160e11b81525f6004820152602401610861565b6001600160a01b038085165f90815260016020908152604080832093871683529290522082905580156118a357826001600160a01b0316846001600160a01b03167f8c5be1e5ebec7d5bd14f71427d1e84f3dd0314c0f7b2291e5b200ac8c7c3b92584604051611b3791815260200190565b60405180910390a350505050565b600c54600160a01b900460ff16158015611b6857506001600160a01b0383163014155b8015611b7d57506001600160a01b0382163014155b15611c0c576001600160a01b038316301480611ba157506001600160a01b03821630145b611c0c5760405162461bcd60e51b815260206004820152603660248201527f546f6b656e207472616e736665727320617265206c6f636b656420756e74696c604482015275081b1a5c5d5a591a5d1e481a5cc819195c1b1bde595960521b6064820152608401610861565b611828838383611d18565b5f5f5f8351604103611c4e576020840151604085015160608601515f1a611c4088828585611e3e565b955095509550505050611c59565b505081515f91506002905b9250925092565b5f826003811115611c7357611c736122f3565b03611c7c575050565b6001826003811115611c9057611c906122f3565b03611cae5760405163f645eedf60e01b815260040160405180910390fd5b6002826003811115611cc257611cc26122f3565b03611ce35760405163fce698f760e01b815260048101829052602401610861565b6003826003811115611cf757611cf76122f3565b036117dd576040516335e2f38360e21b815260048101829052602401610861565b6001600160a01b038316611d42578060025f828254611d37919061210b565b90915550611db29050565b6001600160a01b0383165f9081526020819052604090205481811015611d945760405163391434e360e21b81526001600160a01b03851660048201526024810182905260448101839052606401610861565b6001600160a01b0384165f9081526020819052604090209082900390555b6001600160a01b038216611dce57600280548290039055611dec565b6001600160a01b0382165f9081526020819052604090208054820190555b816001600160a01b0316836001600160a01b03167fddf252ad1be2c89b69c2b068fc378daa952ba7f163c4a11628f55a4df523b3ef83604051611e3191815260200190565b60405180910390a3505050565b5f80807f7fffffffffffffffffffffffffffffff5d576e7357a4501ddfe92f46681b20a0841115611e7757505f91506003905082611efc565b604080515f808252602082018084528a905260ff891692820192909252606081018790526080810186905260019060a0016020604051602081039080840390855afa158015611ec8573d5f5f3e3d5ffd5b5050604051601f1901519150506001600160a01b038116611ef357505f925060019150829050611efc565b92505f91508190505b9450945094915050565b602081525f82518060208401528060208501604085015e5f604082850101526040601f19601f83011684010191505092915050565b6001600160a01b0381168114611674575f5ffd5b5f5f60408385031215611f60575f5ffd5b8235611f6b81611f3b565b946020939093013593505050565b5f5f5f60608486031215611f8b575f5ffd5b8335611f9681611f3b565b92506020840135611fa681611f3b565b929592945050506040919091013590565b5f60208284031215611fc7575f5ffd5b5035919050565b5f60208284031215611fde575f5ffd5b8135611fe981611f3b565b9392505050565b5f5f5f5f5f60808688031215612004575f5ffd5b853594506020860135935060408601359250606086013567ffffffffffffffff81111561202f575f5ffd5b8601601f8101881361203f575f5ffd5b803567ffffffffffffffff811115612055575f5ffd5b886020828401011115612066575f5ffd5b959894975092955050506020019190565b5f5f60408385031215612088575f5ffd5b823561209381611f3b565b915060208301356120a381611f3b565b809150509250929050565b600181811c908216806120c257607f821691505b60208210810361086a57634e487b7160e01b5f52602260045260245ffd5b634e487b7160e01b5f52601160045260245ffd5b8082028115828204841417610673576106736120e0565b80820180821115610673576106736120e0565b5f8261213857634e487b7160e01b5f52601260045260245ffd5b500490565b81810381811115610673576106736120e0565b805169ffffffffffffffffffff81168114612169575f5ffd5b919050565b5f5f5f5f5f60a08688031215612182575f5ffd5b61218b86612150565b602087015160408801516060890151929750909550935091506121b060808701612150565b90509295509295909350565b6001815b60018411156121f7578085048111156121db576121db6120e0565b60018416156121e957908102905b60019390931c9280026121c0565b935093915050565b5f8261220d57506001610673565b8161221957505f610673565b816001811461222f576002811461223957612255565b6001915050610673565b60ff84111561224a5761224a6120e0565b50506001821b610673565b5060208310610133831016604e8410600b8410161715612278575081810a610673565b6122845f1984846121bc565b805f1904821115612297576122976120e0565b029392505050565b5f611fe960ff8416836121ff565b5f5f5f606084860312156122bf575f5ffd5b5050815160208301516040909301519094929350919050565b5f602082840312156122e8575f5ffd5b8151611fe981611f3b565b634e487b7160e01b5f52602160045260245ffdfea26469706673582212202163e160eedb2616b9fdec9fafb9b5ae0dd2bb233d401749375f3167cae01e1564736f6c634300081c0033a264697066735822122045b6c0ac51f021c4dfe1e05510c3004d1b732e8d2859f3f1350761db7bbbc1ad64736f6c634300081c0033","linkReferences":{}},"methodIdentifiers":{"agent()":"f5ff5c76","deployContract(bytes32,string,string,uint256,uint256,uint256,uint256,address,address)":"724a39dc","deployedContracts(bytes32)":"23b94b54","getAgent()":"f551eb19","owner()":"8da5cb5b","projectLead()":"f11fd9da","renounceOwnership()":"715018a6","transferOwnership(address)":"f2fde38b","updateAgent(address)":"49f41a42","updateProjectLead(address)":"26955430"},"id":31}