{"abi":[{"type":"constructor","inputs":[{"name":"name_","type":"string","internalType":"string"},{"name":"symbol_","type":"string","internalType":"string"},{"name":"_totalSupplyTokens","type":"uint256","internalType":"uint256"},{"name":"_basePriceUsd","type":"uint256","internalType":"uint256"},{"name":"_slopeUsd","type":"uint256","internalType":"uint256"},{"name":"_factory","type":"address","internalType":"address"},{"name":"_priceFeed","type":"address","internalType":"address"},{"name":"_targetMarketCapUsd","type":"uint256","internalType":"uint256"}],"stateMutability":"nonpayable"},{"type":"receive","stateMutability":"payable"},{"type":"function","name":"allowance","inputs":[{"name":"owner","type":"address","internalType":"address"},{"name":"spender","type":"address","internalType":"address"}],"outputs":[{"name":"","type":"uint256","internalType":"uint256"}],"stateMutability":"view"},{"type":"function","name":"approve","inputs":[{"name":"spender","type":"address","internalType":"address"},{"name":"value","type":"uint256","internalType":"uint256"}],"outputs":[{"name":"","type":"bool","internalType":"bool"}],"stateMutability":"nonpayable"},{"type":"function","name":"balanceOf","inputs":[{"name":"account","type":"address","internalType":"address"}],"outputs":[{"name":"","type":"uint256","internalType":"uint256"}],"stateMutability":"view"},{"type":"function","name":"basePriceUsd","inputs":[],"outputs":[{"name":"","type":"uint256","internalType":"uint256"}],"stateMutability":"view"},{"type":"function","name":"buy","inputs":[{"name":"numTokens","type":"uint256","internalType":"uint256"},{"name":"tokenAllocation","type":"uint256","internalType":"uint256"},{"name":"nonce","type":"uint256","internalType":"uint256"},{"name":"signature","type":"bytes","internalType":"bytes"}],"outputs":[],"stateMutability":"payable"},{"type":"function","name":"decimals","inputs":[],"outputs":[{"name":"","type":"uint8","internalType":"uint8"}],"stateMutability":"view"},{"type":"function","name":"deployLiquidity","inputs":[],"outputs":[],"stateMutability":"nonpayable"},{"type":"function","name":"factory","inputs":[],"outputs":[{"name":"","type":"address","internalType":"contract TokenBondingCurveFactory"}],"stateMutability":"view"},{"type":"function","name":"getCurrentPrice","inputs":[],"outputs":[{"name":"price","type":"uint256","internalType":"uint256"}],"stateMutability":"view"},{"type":"function","name":"getLatestEthPrice","inputs":[],"outputs":[{"name":"price","type":"uint256","internalType":"uint256"}],"stateMutability":"view"},{"type":"function","name":"getRemainingToMaturity","inputs":[],"outputs":[{"name":"remainingUsd","type":"uint256","internalType":"uint256"},{"name":"remainingEth","type":"uint256","internalType":"uint256"}],"stateMutability":"view"},{"type":"function","name":"liquidityDeployed","inputs":[],"outputs":[{"name":"","type":"bool","internalType":"bool"}],"stateMutability":"view"},{"type":"function","name":"name","inputs":[],"outputs":[{"name":"","type":"string","internalType":"string"}],"stateMutability":"view"},{"type":"function","name":"nonces","inputs":[{"name":"","type":"address","internalType":"address"}],"outputs":[{"name":"","type":"uint256","internalType":"uint256"}],"stateMutability":"view"},{"type":"function","name":"owner","inputs":[],"outputs":[{"name":"","type":"address","internalType":"address"}],"stateMutability":"view"},{"type":"function","name":"priceFeed","inputs":[],"outputs":[{"name":"","type":"address","internalType":"contract AggregatorV3Interface"}],"stateMutability":"view"},{"type":"function","name":"renounceOwnership","inputs":[],"outputs":[],"stateMutability":"nonpayable"},{"type":"function","name":"sell","inputs":[{"name":"numTokens","type":"uint256","internalType":"uint256"}],"outputs":[],"stateMutability":"nonpayable"},{"type":"function","name":"setUniswapRouter","inputs":[{"name":"routerAddress","type":"address","internalType":"address"}],"outputs":[],"stateMutability":"nonpayable"},{"type":"function","name":"slopeUsd","inputs":[],"outputs":[{"name":"","type":"uint256","internalType":"uint256"}],"stateMutability":"view"},{"type":"function","name":"symbol","inputs":[],"outputs":[{"name":"","type":"string","internalType":"string"}],"stateMutability":"view"},{"type":"function","name":"targetMarketCapUsd","inputs":[],"outputs":[{"name":"","type":"uint256","internalType":"uint256"}],"stateMutability":"view"},{"type":"function","name":"tokensSold","inputs":[],"outputs":[{"name":"","type":"uint256","internalType":"uint256"}],"stateMutability":"view"},{"type":"function","name":"totalSupply","inputs":[],"outputs":[{"name":"","type":"uint256","internalType":"uint256"}],"stateMutability":"view"},{"type":"function","name":"totalSupplyTokens","inputs":[],"outputs":[{"name":"","type":"uint256","internalType":"uint256"}],"stateMutability":"view"},{"type":"function","name":"transfer","inputs":[{"name":"to","type":"address","internalType":"address"},{"name":"value","type":"uint256","internalType":"uint256"}],"outputs":[{"name":"","type":"bool","internalType":"bool"}],"stateMutability":"nonpayable"},{"type":"function","name":"transferFrom","inputs":[{"name":"from","type":"address","internalType":"address"},{"name":"to","type":"address","internalType":"address"},{"name":"value","type":"uint256","internalType":"uint256"}],"outputs":[{"name":"","type":"bool","internalType":"bool"}],"stateMutability":"nonpayable"},{"type":"function","name":"transferOwnership","inputs":[{"name":"newOwner","type":"address","internalType":"address"}],"outputs":[],"stateMutability":"nonpayable"},{"type":"function","name":"uniswapRouter","inputs":[],"outputs":[{"name":"","type":"address","internalType":"contract IUniswapV2Router02"}],"stateMutability":"view"},{"type":"function","name":"withdrawRemaining","inputs":[],"outputs":[],"stateMutability":"nonpayable"},{"type":"event","name":"Approval","inputs":[{"name":"owner","type":"address","indexed":true,"internalType":"address"},{"name":"spender","type":"address","indexed":true,"internalType":"address"},{"name":"value","type":"uint256","indexed":false,"internalType":"uint256"}],"anonymous":false},{"type":"event","name":"LiquidityDeployed","inputs":[{"name":"tokenAmount","type":"uint256","indexed":false,"internalType":"uint256"},{"name":"ethAmount","type":"uint256","indexed":false,"internalType":"uint256"},{"name":"liquidity","type":"uint256","indexed":false,"internalType":"uint256"}],"anonymous":false},{"type":"event","name":"OwnershipTransferred","inputs":[{"name":"previousOwner","type":"address","indexed":true,"internalType":"address"},{"name":"newOwner","type":"address","indexed":true,"internalType":"address"}],"anonymous":false},{"type":"event","name":"TokensBought","inputs":[{"name":"buyer","type":"address","indexed":true,"internalType":"address"},{"name":"numTokens","type":"uint256","indexed":false,"internalType":"uint256"},{"name":"costUsd","type":"uint256","indexed":false,"internalType":"uint256"},{"name":"ethPaid","type":"uint256","indexed":false,"internalType":"uint256"},{"name":"refundEth","type":"uint256","indexed":false,"internalType":"uint256"}],"anonymous":false},{"type":"event","name":"TokensSold","inputs":[{"name":"seller","type":"address","indexed":true,"internalType":"address"},{"name":"numTokens","type":"uint256","indexed":false,"internalType":"uint256"},{"name":"refundUsd","type":"uint256","indexed":false,"internalType":"uint256"},{"name":"ethRefunded","type":"uint256","indexed":false,"internalType":"uint256"}],"anonymous":false},{"type":"event","name":"Transfer","inputs":[{"name":"from","type":"address","indexed":true,"internalType":"address"},{"name":"to","type":"address","indexed":true,"internalType":"address"},{"name":"value","type":"uint256","indexed":false,"internalType":"uint256"}],"anonymous":false},{"type":"error","name":"ECDSAInvalidSignature","inputs":[]},{"type":"error","name":"ECDSAInvalidSignatureLength","inputs":[{"name":"length","type":"uint256","internalType":"uint256"}]},{"type":"error","name":"ECDSAInvalidSignatureS","inputs":[{"name":"s","type":"bytes32","internalType":"bytes32"}]},{"type":"error","name":"ERC20InsufficientAllowance","inputs":[{"name":"spender","type":"address","internalType":"address"},{"name":"allowance","type":"uint256","internalType":"uint256"},{"name":"needed","type":"uint256","internalType":"uint256"}]},{"type":"error","name":"ERC20InsufficientBalance","inputs":[{"name":"sender","type":"address","internalType":"address"},{"name":"balance","type":"uint256","internalType":"uint256"},{"name":"needed","type":"uint256","internalType":"uint256"}]},{"type":"error","name":"ERC20InvalidApprover","inputs":[{"name":"approver","type":"address","internalType":"address"}]},{"type":"error","name":"ERC20InvalidReceiver","inputs":[{"name":"receiver","type":"address","internalType":"address"}]},{"type":"error","name":"ERC20InvalidSender","inputs":[{"name":"sender","type":"address","internalType":"address"}]},{"type":"error","name":"ERC20InvalidSpender","inputs":[{"name":"spender","type":"address","internalType":"address"}]},{"type":"error","name":"OwnableInvalidOwner","inputs":[{"name":"owner","type":"address","internalType":"address"}]},{"type":"error","name":"OwnableUnauthorizedAccount","inputs":[{"name":"account","type":"address","internalType":"address"}]},{"type":"error","name":"ReentrancyGuardReentrantCall","inputs":[]}],"bytecode":{"object":"0x60c060405234801561000f575f5ffd5b50604051612a37380380612a3783398101604081905261002e9161053b565b338888600361003d838261066d565b50600461004a828261066d565b5050506001600160a01b03811661007b57604051631e4fbdf760e01b81525f60048201526024015b60405180910390fd5b610084816101f6565b5060016006556001600160a01b0383166100e05760405162461bcd60e51b815260206004820152601e60248201527f466163746f727920616464726573732063616e6e6f74206265207a65726f00006044820152606401610072565b6001600160a01b0380841660a05282166101465760405162461bcd60e51b815260206004820152602160248201527f5072696365206665656420616464726573732063616e6e6f74206265207a65726044820152606f60f81b6064820152608401610072565b5f81116101955760405162461bcd60e51b815260206004820152601d60248201527f546172676574206d61726b657420636170206d757374206265203e20300000006044820152606401610072565b600885905560098490556080869052600a8190556101c93060126101ba90600a610820565b6101c49089610835565b610247565b50600c80546001600160a01b0319166001600160a01b03929092169190911790555061085f945050505050565b600580546001600160a01b038381166001600160a01b0319831681179093556040519116919082907f8be0079c531659141344cd1fd0a4f28419497f9722a3daafe3b4186f6b6457e0905f90a35050565b6001600160a01b0382166102705760405163ec442f0560e01b81525f6004820152602401610072565b61027b5f838361027f565b5050565b600c54600160a01b900460ff161580156102a257506001600160a01b0383163014155b80156102b757506001600160a01b0382163014155b1561034d576001600160a01b0383163014806102db57506001600160a01b03821630145b61034d5760405162461bcd60e51b815260206004820152603660248201527f546f6b656e207472616e736665727320617265206c6f636b656420756e74696c60448201527f206c6971756964697479206973206465706c6f796564000000000000000000006064820152608401610072565b61035883838361035d565b505050565b6001600160a01b038316610387578060025f82825461037c919061084c565b909155506103f79050565b6001600160a01b0383165f90815260208190526040902054818110156103d95760405163391434e360e21b81526001600160a01b03851660048201526024810182905260448101839052606401610072565b6001600160a01b0384165f9081526020819052604090209082900390555b6001600160a01b03821661041357600280548290039055610431565b6001600160a01b0382165f9081526020819052604090208054820190555b816001600160a01b0316836001600160a01b03167fddf252ad1be2c89b69c2b068fc378daa952ba7f163c4a11628f55a4df523b3ef8360405161047691815260200190565b60405180910390a3505050565b634e487b7160e01b5f52604160045260245ffd5b5f82601f8301126104a6575f5ffd5b81516001600160401b038111156104bf576104bf610483565b604051601f8201601f19908116603f011681016001600160401b03811182821017156104ed576104ed610483565b604052818152838201602001851015610504575f5ffd5b8160208501602083015e5f918101602001919091529392505050565b80516001600160a01b0381168114610536575f5ffd5b919050565b5f5f5f5f5f5f5f5f610100898b031215610553575f5ffd5b88516001600160401b03811115610568575f5ffd5b6105748b828c01610497565b60208b015190995090506001600160401b03811115610591575f5ffd5b61059d8b828c01610497565b60408b015160608c015160808d0151929a50909850965094506105c4905060a08a01610520565b92506105d260c08a01610520565b60e09990990151979a96995094979396929591945050565b600181811c908216806105fe57607f821691505b60208210810361061c57634e487b7160e01b5f52602260045260245ffd5b50919050565b601f82111561035857805f5260205f20601f840160051c810160208510156106475750805b601f840160051c820191505b81811015610666575f8155600101610653565b5050505050565b81516001600160401b0381111561068657610686610483565b61069a8161069484546105ea565b84610622565b6020601f8211600181146106cc575f83156106b55750848201515b5f19600385901b1c1916600184901b178455610666565b5f84815260208120601f198516915b828110156106fb57878501518255602094850194600190920191016106db565b508482101561071857868401515f19600387901b60f8161c191681555b50505050600190811b01905550565b634e487b7160e01b5f52601160045260245ffd5b6001815b60018411156107765780850481111561075a5761075a610727565b600184161561076857908102905b60019390931c92800261073f565b935093915050565b5f8261078c5750600161081a565b8161079857505f61081a565b81600181146107ae57600281146107b8576107d4565b600191505061081a565b60ff8411156107c9576107c9610727565b50506001821b61081a565b5060208310610133831016604e8410600b84101617156107f7575081810a61081a565b6108035f19848461073b565b805f190482111561081657610816610727565b0290505b92915050565b5f61082e60ff84168361077e565b9392505050565b808202811582820484141761081a5761081a610727565b8082018082111561081a5761081a610727565b60805160a0516121b06108875f395f81816104c50152610e5b01525f61027a01526121b05ff3fe6080604052600436106101c8575f3560e01c80637ecebe00116100f2578063bfc78b2d11610092578063eb91d37e11610062578063eb91d37e1461054a578063edbd18d51461055e578063ee38db9514610573578063f2fde38b14610587575f5ffd5b8063bfc78b2d146104a1578063c45a0155146104b4578063dd62ed3e146104e7578063e4849b321461052b575f5ffd5b80639c5913cc116100cd5780639c5913cc1461041a578063a9059cbb1461043a578063b648954214610459578063bea9849e14610482575f5ffd5b80637ecebe00146103be5780638da5cb5b146103e957806395d89b4114610406575f5ffd5b80634086bf8911610168578063715018a611610138578063715018a61461033f57806372fdb60b14610353578063735de9f714610368578063741bef1a1461039f575f5ffd5b80634086bf89146102cb578063518ab2a8146102e15780636f138f22146102f657806370a082311461030b575f5ffd5b806323b872dd116101a357806323b872dd1461024a5780632e187a681461026957806330c0b9ec1461029c578063313ce567146102b0575f5ffd5b806306fdde03146101d3578063095ea7b3146101fd57806318160ddd1461022c575f5ffd5b366101cf57005b5f5ffd5b3480156101de575f5ffd5b506101e76105a6565b6040516101f49190611d79565b60405180910390f35b348015610208575f5ffd5b5061021c610217366004611dc2565b610636565b60405190151581526020016101f4565b348015610237575f5ffd5b506002545b6040519081526020016101f4565b348015610255575f5ffd5b5061021c610264366004611dec565b61064f565b348015610274575f5ffd5b5061023c7f000000000000000000000000000000000000000000000000000000000000000081565b3480156102a7575f5ffd5b5061023c610672565b3480156102bb575f5ffd5b50604051601281526020016101f4565b3480156102d6575f5ffd5b506102df61073f565b005b3480156102ec575f5ffd5b5061023c600b5481565b348015610301575f5ffd5b5061023c600a5481565b348015610316575f5ffd5b5061023c610325366004611e2a565b6001600160a01b03165f9081526020819052604090205490565b34801561034a575f5ffd5b506102df610c15565b34801561035e575f5ffd5b5061023c60095481565b348015610373575f5ffd5b50600d54610387906001600160a01b031681565b6040516001600160a01b0390911681526020016101f4565b3480156103aa575f5ffd5b50600c54610387906001600160a01b031681565b3480156103c9575f5ffd5b5061023c6103d8366004611e2a565b60076020525f908152604090205481565b3480156103f4575f5ffd5b506005546001600160a01b0316610387565b348015610411575f5ffd5b506101e7610c26565b348015610425575f5ffd5b50600c5461021c90600160a01b900460ff1681565b348015610445575f5ffd5b5061021c610454366004611dc2565b610c35565b348015610464575f5ffd5b5061046d610c42565b604080519283526020830191909152016101f4565b34801561048d575f5ffd5b506102df61049c366004611e2a565b610caa565b6102df6104af366004611e4c565b610d2a565b3480156104bf575f5ffd5b506103877f000000000000000000000000000000000000000000000000000000000000000081565b3480156104f2575f5ffd5b5061023c610501366004611ed3565b6001600160a01b039182165f90815260016020908152604080832093909416825291909152205490565b348015610536575f5ffd5b506102df610545366004611f0a565b61122f565b348015610555575f5ffd5b5061023c611546565b348015610569575f5ffd5b5061023c60085481565b34801561057e575f5ffd5b506102df611569565b348015610592575f5ffd5b506102df6105a1366004611e2a565b6116b0565b6060600380546105b590611f21565b80601f01602080910402602001604051908101604052809291908181526020018280546105e190611f21565b801561062c5780601f106106035761010080835404028352916020019161062c565b820191905f5260205f20905b81548152906001019060200180831161060f57829003601f168201915b5050505050905090565b5f336106438185856116ea565b60019150505b92915050565b5f3361065c8582856116fc565b610667858585611778565b506001949350505050565b5f5f5f600c5f9054906101000a90046001600160a01b03166001600160a01b031663feaf968c6040518163ffffffff1660e01b815260040160a060405180830381865afa1580156106c5573d5f5f3e3d5ffd5b505050506040513d601f19601f820116820180604052508101906106e99190611f71565b509350509250505f82136107395760405162461bcd60e51b8152602060048201526012602482015271496e76616c6964207072696365206461746160701b60448201526064015b60405180910390fd5b50919050565b6107476117d5565b600c54600160a01b900460ff16156107a15760405162461bcd60e51b815260206004820152601a60248201527f4c697175696469747920616c7265616479206465706c6f7965640000000000006044820152606401610730565b5f600b546009546107b29190611fd3565b6008546107bf9190611fea565b90505f81600b546107d09190611fd3565b9050600a548110156108245760405162461bcd60e51b815260206004820152601d60248201527f546172676574206d61726b657420636170206e6f7420726561636865640000006044820152606401610730565b600d546001600160a01b03166108755760405162461bcd60e51b8152602060048201526016602482015275155b9a5cddd85c081c9bdd5d195c881b9bdd081cd95d60521b6044820152606401610730565b305f90815260208190526040902054806108db5760405162461bcd60e51b815260206004820152602160248201527f4e6f20746f6b656e7320617661696c61626c6520666f72206c697175696469746044820152607960f81b6064820152608401610730565b47806109295760405162461bcd60e51b815260206004820152601e60248201527f4e6f2045544820617661696c61626c6520666f72206c697175696469747900006044820152606401610730565b5f670de0b6b3a764000061093b610672565b6109459084611fd3565b61094f9190611ffd565b90505f61095c8683611ffd565b90505f61096b6012600a6120ff565b6109759086611ffd565b90505f5f83831015801561098857505f84115b156109975750829050846109cf565b8291505f6109a58a84611fd3565b90506109af610672565b6109c182670de0b6b3a7640000611fd3565b6109cb9190611ffd565b9150505b5f8211610a1e5760405162461bcd60e51b815260206004820152601f60248201527f43616c63756c6174656420746f6b656e20616d6f756e74206973207a65726f006044820152606401610730565b5f8111610a6d5760405162461bcd60e51b815260206004820152601d60248201527f43616c63756c617465642045544820616d6f756e74206973207a65726f0000006044820152606401610730565b5f610a7a6012600a6120ff565b610a849084611fd3565b600d54909150610a9f9030906001600160a01b0316836116ea565b5f610aac42610384611fea565b90505f6064610abc84605f611fd3565b610ac69190611ffd565b90505f6064610ad686605f611fd3565b610ae09190611ffd565b600d549091505f90819081906001600160a01b031663f305d71989308a8989610b116005546001600160a01b031690565b60405160e088901b6001600160e01b03191681526001600160a01b039586166004820152602481019490945260448401929092526064830152909116608482015260a481018a905260c40160606040518083038185885af1158015610b78573d5f5f3e3d5ffd5b50505050506040513d601f19601f82011682018060405250810190610b9d919061210d565b600c805460ff60a01b1916600160a01b179055604080518481526020810184905290810182905292955090935091507f27ef04f3eee6365ec57cc96b0ca6c817697868d1f05670199c789ca05b2697929060600160405180910390a150505050505050505050505050505050610c136001600655565b565b610c1d6117ff565b610c135f61182c565b6060600480546105b590611f21565b5f33610643818585611778565b5f5f5f600b54600954610c559190611fd3565b600854610c629190611fea565b90505f81600b54610c739190611fd3565b9050600a548110610c8957505f93849350915050565b80600a54610c979190612138565b9350610ca28461187d565b925050509091565b610cb26117ff565b6001600160a01b038116610d085760405162461bcd60e51b815260206004820152601d60248201527f526f7574657220616464726573732063616e6e6f74206265207a65726f0000006044820152606401610730565b600d80546001600160a01b0319166001600160a01b0392909216919091179055565b610d326117d5565b5f8511610d815760405162461bcd60e51b815260206004820152601b60248201527f4d75737420627579206174206c65617374206f6e6520746f6b656e00000000006044820152606401610730565b83851115610dd15760405162461bcd60e51b815260206004820152601f60248201527f43616e6e6f7420627579206d6f7265207468616e20616c6c6f636174696f6e006044820152606401610730565b335f908152600760205260409020548311610e1e5760405162461bcd60e51b815260206004820152600d60248201526c496e76616c6964206e6f6e636560981b6044820152606401610730565b60408051336020820152908101849052306060820152608081018590525f9060a0016040516020818303038152906040528051906020012090505f7f00000000000000000000000000000000000000000000000000000000000000006001600160a01b031663f551eb196040518163ffffffff1660e01b8152600401602060405180830381865afa158015610eb5573d5f5f3e3d5ffd5b505050506040513d601f19601f82011682018060405250810190610ed9919061214b565b7f19457468657265756d205369676e6564204d6573736167653a0a3332000000005f908152601c849052603c812091925090610f4a9086868080601f0160208091040260200160405190810160405280939291908181526020018383808284375f920191909152506118a292505050565b9050816001600160a01b0316816001600160a01b031614610fad5760405162461bcd60e51b815260206004820152601760248201527f496e76616c6964206167656e74207369676e61747572650000000000000000006044820152606401610730565b335f9081526007602052604081208790556002610fcb60018b612138565b610fd5908b611fd3565b610fdf9190611ffd565b600b54610fec908b611fd3565b610ff69190611fea565b6009546110039190611fd3565b600854611010908b611fd3565b61101a9190611fea565b90505f611026346118ca565b9050818110156110845760405162461bcd60e51b815260206004820152602360248201527f496e73756666696369656e742045544820666f7220746f6b656e20707572636860448201526261736560e81b6064820152608401610730565b5f828211156110a7575f6110988484612138565b90506110a38161187d565b9150505b8a600b5f8282546110b89190611fea565b909155505f90506110cb6012600a6120ff565b6110d5908d611fd3565b305f908152602081905260409020549091508111156111365760405162461bcd60e51b815260206004820152601b60248201527f4e6f7420656e6f75676820746f6b656e7320617661696c61626c6500000000006044820152606401610730565b611141303383611778565b81156111ce576040515f90339084908381818185875af1925050503d805f8114611186576040519150601f19603f3d011682016040523d82523d5f602084013e61118b565b606091505b50509050806111cc5760405162461bcd60e51b815260206004820152600d60248201526c1499599d5b990819985a5b1959609a1b6044820152606401610730565b505b604080518d815260208101869052348183015260608101849052905133917fca1d1d2c3f24bb3f0c4ad90bd9823d2465052996d73438c962e227ea67a206d8919081900360800190a2505050505050506112286001600655565b5050505050565b6112376117d5565b5f81116112865760405162461bcd60e51b815260206004820152601c60248201527f4d7573742073656c6c206174206c65617374206f6e6520746f6b656e000000006044820152606401610730565b5f6112936012600a6120ff565b61129d9083611fd3565b335f908152602081905260409020549091508111156112fe5760405162461bcd60e51b815260206004820152601a60248201527f496e73756666696369656e7420746f6b656e2062616c616e63650000000000006044820152606401610730565b81600b5410156113505760405162461bcd60e51b815260206004820152601f60248201527f4e6f7420656e6f75676820736f6c6420746f6b656e73207265636f72646564006044820152606401610730565b5f600261135e600185612138565b6113689085611fd3565b6113729190611ffd565b83600b546113809190612138565b61138a9085611fd3565b6113949190611fea565b6009546113a19190611fd3565b6008546113ae9085611fd3565b6113b89190611fea565b90505f6113c3610672565b90505f816113d984670de0b6b3a7640000611fd3565b6113e39190611ffd565b9050804710156114465760405162461bcd60e51b815260206004820152602860248201527f436f6e74726163742068617320696e73756666696369656e742045544820666f6044820152671c881c99599d5b9960c21b6064820152608401610730565b84600b5f8282546114579190612138565b909155506114689050333086611778565b6040515f90339083908381818185875af1925050503d805f81146114a7576040519150601f19603f3d011682016040523d82523d5f602084013e6114ac565b606091505b50509050806114f15760405162461bcd60e51b8152602060048201526011602482015270115512081c99599d5b990819985a5b1959607a1b6044820152606401610730565b604080518781526020810186905290810183905233907f6db63bebf1e6540277744df32846ebdb98385b1a73f2d5de49b28348add63f509060600160405180910390a250505050506115436001600655565b50565b5f600b546009546115579190611fd3565b6008546115649190611fea565b905090565b6115716117ff565b600c54600160a01b900460ff166115ca5760405162461bcd60e51b815260206004820152601a60248201527f4c6971756964697479206e6f74206465706c6f796564207965740000000000006044820152606401610730565b47801561167b575f6115e46005546001600160a01b031690565b6001600160a01b0316826040515f6040518083038185875af1925050503d805f811461162b576040519150601f19603f3d011682016040523d82523d5f602084013e611630565b606091505b50509050806116795760405162461bcd60e51b8152602060048201526015602482015274115512081dda5d1a191c985dd85b0819985a5b1959605a1b6044820152606401610730565b505b305f9081526020819052604090205480156116ac576116ac306116a66005546001600160a01b031690565b83611778565b5050565b6116b86117ff565b6001600160a01b0381166116e157604051631e4fbdf760e01b81525f6004820152602401610730565b6115438161182c565b6116f783838360016118e6565b505050565b6001600160a01b038381165f908152600160209081526040808320938616835292905220545f19811015611772578181101561176457604051637dc7a0d960e11b81526001600160a01b03841660048201526024810182905260448101839052606401610730565b61177284848484035f6118e6565b50505050565b6001600160a01b0383166117a157604051634b637e8f60e11b81525f6004820152602401610730565b6001600160a01b0382166117ca5760405163ec442f0560e01b81525f6004820152602401610730565b6116f78383836119b8565b6002600654036117f857604051633ee5aeb560e01b815260040160405180910390fd5b6002600655565b6005546001600160a01b03163314610c135760405163118cdaa760e01b8152336004820152602401610730565b600580546001600160a01b038381166001600160a01b0319831681179093556040519116919082907f8be0079c531659141344cd1fd0a4f28419497f9722a3daafe3b4186f6b6457e0905f90a35050565b5f611886610672565b61189883670de0b6b3a7640000611fd3565b6106499190611ffd565b5f5f5f5f6118b08686611a8a565b9250925092506118c08282611ad3565b5090949350505050565b5f670de0b6b3a76400006118dc610672565b6118989084611fd3565b6001600160a01b03841661190f5760405163e602df0560e01b81525f6004820152602401610730565b6001600160a01b03831661193857604051634a1406b160e11b81525f6004820152602401610730565b6001600160a01b038085165f908152600160209081526040808320938716835292905220829055801561177257826001600160a01b0316846001600160a01b03167f8c5be1e5ebec7d5bd14f71427d1e84f3dd0314c0f7b2291e5b200ac8c7c3b925846040516119aa91815260200190565b60405180910390a350505050565b600c54600160a01b900460ff161580156119db57506001600160a01b0383163014155b80156119f057506001600160a01b0382163014155b15611a7f576001600160a01b038316301480611a1457506001600160a01b03821630145b611a7f5760405162461bcd60e51b815260206004820152603660248201527f546f6b656e207472616e736665727320617265206c6f636b656420756e74696c604482015275081b1a5c5d5a591a5d1e481a5cc819195c1b1bde595960521b6064820152608401610730565b6116f7838383611b8b565b5f5f5f8351604103611ac1576020840151604085015160608601515f1a611ab388828585611cb1565b955095509550505050611acc565b505081515f91506002905b9250925092565b5f826003811115611ae657611ae6612166565b03611aef575050565b6001826003811115611b0357611b03612166565b03611b215760405163f645eedf60e01b815260040160405180910390fd5b6002826003811115611b3557611b35612166565b03611b565760405163fce698f760e01b815260048101829052602401610730565b6003826003811115611b6a57611b6a612166565b036116ac576040516335e2f38360e21b815260048101829052602401610730565b6001600160a01b038316611bb5578060025f828254611baa9190611fea565b90915550611c259050565b6001600160a01b0383165f9081526020819052604090205481811015611c075760405163391434e360e21b81526001600160a01b03851660048201526024810182905260448101839052606401610730565b6001600160a01b0384165f9081526020819052604090209082900390555b6001600160a01b038216611c4157600280548290039055611c5f565b6001600160a01b0382165f9081526020819052604090208054820190555b816001600160a01b0316836001600160a01b03167fddf252ad1be2c89b69c2b068fc378daa952ba7f163c4a11628f55a4df523b3ef83604051611ca491815260200190565b60405180910390a3505050565b5f80807f7fffffffffffffffffffffffffffffff5d576e7357a4501ddfe92f46681b20a0841115611cea57505f91506003905082611d6f565b604080515f808252602082018084528a905260ff891692820192909252606081018790526080810186905260019060a0016020604051602081039080840390855afa158015611d3b573d5f5f3e3d5ffd5b5050604051601f1901519150506001600160a01b038116611d6657505f925060019150829050611d6f565b92505f91508190505b9450945094915050565b602081525f82518060208401528060208501604085015e5f604082850101526040601f19601f83011684010191505092915050565b6001600160a01b0381168114611543575f5ffd5b5f5f60408385031215611dd3575f5ffd5b8235611dde81611dae565b946020939093013593505050565b5f5f5f60608486031215611dfe575f5ffd5b8335611e0981611dae565b92506020840135611e1981611dae565b929592945050506040919091013590565b5f60208284031215611e3a575f5ffd5b8135611e4581611dae565b9392505050565b5f5f5f5f5f60808688031215611e60575f5ffd5b853594506020860135935060408601359250606086013567ffffffffffffffff811115611e8b575f5ffd5b8601601f81018813611e9b575f5ffd5b803567ffffffffffffffff811115611eb1575f5ffd5b886020828401011115611ec2575f5ffd5b959894975092955050506020019190565b5f5f60408385031215611ee4575f5ffd5b8235611eef81611dae565b91506020830135611eff81611dae565b809150509250929050565b5f60208284031215611f1a575f5ffd5b5035919050565b600181811c90821680611f3557607f821691505b60208210810361073957634e487b7160e01b5f52602260045260245ffd5b805169ffffffffffffffffffff81168114611f6c575f5ffd5b919050565b5f5f5f5f5f60a08688031215611f85575f5ffd5b611f8e86611f53565b60208701516040880151606089015192975090955093509150611fb360808701611f53565b90509295509295909350565b634e487b7160e01b5f52601160045260245ffd5b808202811582820484141761064957610649611fbf565b8082018082111561064957610649611fbf565b5f8261201757634e487b7160e01b5f52601260045260245ffd5b500490565b6001815b60018411156120575780850481111561203b5761203b611fbf565b600184161561204957908102905b60019390931c928002612020565b935093915050565b5f8261206d57506001610649565b8161207957505f610649565b816001811461208f5760028114612099576120b5565b6001915050610649565b60ff8411156120aa576120aa611fbf565b50506001821b610649565b5060208310610133831016604e8410600b84101617156120d8575081810a610649565b6120e45f19848461201c565b805f19048211156120f7576120f7611fbf565b029392505050565b5f611e4560ff84168361205f565b5f5f5f6060848603121561211f575f5ffd5b5050815160208301516040909301519094929350919050565b8181038181111561064957610649611fbf565b5f6020828403121561215b575f5ffd5b8151611e4581611dae565b634e487b7160e01b5f52602160045260245ffdfea2646970667358221220d808ec60cd3cf4c2332b5d866d291d019b4a1cd1f3e0ec1b66ab7789353952c464736f6c634300081c0033","linkReferences":{}},"methodIdentifiers":{"allowance(address,address)":"dd62ed3e","approve(address,uint256)":"095ea7b3","balanceOf(address)":"70a08231","basePriceUsd()":"edbd18d5","buy(uint256,uint256,uint256,bytes)":"bfc78b2d","decimals()":"313ce567","deployLiquidity()":"4086bf89","factory()":"c45a0155","getCurrentPrice()":"eb91d37e","getLatestEthPrice()":"30c0b9ec","getRemainingToMaturity()":"b6489542","liquidityDeployed()":"9c5913cc","name()":"06fdde03","nonces(address)":"7ecebe00","owner()":"8da5cb5b","priceFeed()":"741bef1a","renounceOwnership()":"715018a6","sell(uint256)":"e4849b32","setUniswapRouter(address)":"bea9849e","slopeUsd()":"72fdb60b","symbol()":"95d89b41","targetMarketCapUsd()":"6f138f22","tokensSold()":"518ab2a8","totalSupply()":"18160ddd","totalSupplyTokens()":"2e187a68","transfer(address,uint256)":"a9059cbb","transferFrom(address,address,uint256)":"23b872dd","transferOwnership(address)":"f2fde38b","uniswapRouter()":"735de9f7","withdrawRemaining()":"ee38db95"},"id":36}